{
  "contractName": "SumNumbers",
  "abi": [
    {
      "constant": true,
      "inputs": [],
      "name": "totalSum",
      "outputs": [
        {
          "name": "",
          "type": "uint256"
        }
      ],
      "payable": false,
      "stateMutability": "view",
      "type": "function"
    },
    {
      "constant": true,
      "inputs": [
        {
          "name": "",
          "type": "address"
        }
      ],
      "name": "sumFactors",
      "outputs": [
        {
          "name": "",
          "type": "bool"
        }
      ],
      "payable": false,
      "stateMutability": "view",
      "type": "function"
    },
    {
      "anonymous": false,
      "inputs": [
        {
          "indexed": false,
          "name": "submited_number",
          "type": "uint256"
        }
      ],
      "name": "numberSubmited",
      "type": "event"
    },
    {
      "constant": false,
      "inputs": [
        {
          "name": "_number",
          "type": "uint256"
        }
      ],
      "name": "addNumbers",
      "outputs": [],
      "payable": false,
      "stateMutability": "nonpayable",
      "type": "function"
    }
  ],
  "bytecode": "0x60806040526000805534801561001457600080fd5b506102a9806100246000396000f3fe608060405234801561001057600080fd5b50600436106100415760003560e01c80632be55998146100465780634869f99d14610074578063af7529f214610092575b600080fd5b6100726004803603602081101561005c57600080fd5b81019080803590602001909291905050506100ee565b005b61007c610233565b6040518082815260200191505060405180910390f35b6100d4600480360360208110156100a857600080fd5b81019080803573ffffffffffffffffffffffffffffffffffffffff169060200190929190505050610239565b604051808215151515815260200191505060405180910390f35b600160003373ffffffffffffffffffffffffffffffffffffffff1673ffffffffffffffffffffffffffffffffffffffff16815260200190815260200160002060009054906101000a900460ff1615610191576040517f08c379a000000000000000000000000000000000000000000000000000000000815260040180806020018281038252602481526020018061025a6024913960400191505060405180910390fd5b60018060003373ffffffffffffffffffffffffffffffffffffffff1673ffffffffffffffffffffffffffffffffffffffff16815260200190815260200160002060006101000a81548160ff0219169083151502179055508060008082825401925050819055507f2a39cc3cf6b69322b84b11abe6ae2dc5df14c21ae08317b0d45eacad1743ce246000546040518082815260200191505060405180910390a150565b60005481565b60016020528060005260406000206000915054906101000a900460ff168156fe53656e6465722068617320616c72656164792070726f76696465642061206e756d626572a165627a7a72305820f76f70867a10a98b3b2f774d84bf8baa6a431a3bd9d21b5467c8dad0f42bbafd0029",
  "source": "pragma solidity ^0.5.0;\r\n\r\ncontract SumNumbers {\r\n\r\n    uint public totalSum = 0;\r\n\r\n    mapping(address => bool) public sumFactors;\r\n\r\n    event numberSubmited(uint submited_number);\r\n\r\n   function addNumbers(uint _number) public {\r\n\r\n        require(!sumFactors[msg.sender],\"Sender has already provided a number\");\r\n\r\n\r\n        sumFactors[msg.sender] = true;\r\n\r\n         totalSum += _number;\r\n         emit numberSubmited(totalSum);\r\n    }\r\n\r\n}",
  "sourcePath": "C:/Users/George/SampleSmartContract/contracts/SumNumbers.sol",
  "compiler": {
    "name": "solc",
    "version": "0.5.8+commit.23d335f2.Emscripten.clang"
  },
  "schemaVersion": "3.0.10",
  "updatedAt": "2019-07-08T10:29:33.574Z",
  "devdoc": {
    "methods": {}
  },
  "userdoc": {
    "methods": {}
  }
}